:04000000FEEF7FF0A0
:10100000005072657373203120666F7220526564E0
:101010002C203220666F722059656C6C6F772C2003
:101020003320666F7220477265656E2E2E2E0D0A74
:101030000057656C636F6D6520746F20434F3332CA
:1010400036204C6162330D0A0000DAEC08F0310EF4
:101050000B6E010E0C6E0BC008F087EC08F0060E4C
:101060000A6E130E096EAE0EE82EFED7092EFCD7BF
:101070000A2EFAD70CC008F087EC08F0D0EC08F084
:101080000009D8B446EF08F048EF08F03EEF08F04A
:10109000A3EC08F00D6E8A908A928A9459EF08F0BA
:1010A0008A803EEF08F08A823EEF08F08A843EEFA5
:1010B00008F00D50310AD8B450EF08F0030AD8B444
:1010C00053EF08F0010AD8B456EF08F03EEF08F0ED
:1010D000FEEF7FF0080EB86E900EAB6E240EAC6E75
:1010E000CF0EAF6EB06A000E076E000E086EEBEC0E
:1010F00008F0000E076E000E086EE6EC08F0000E19
:10110000076E000E086EF0EC08F00E6A120093EF06
:1011100008F008C0F6FF100EF76EF86A0800F550E8
:10112000C5EC08F0082A08C0F6FF100EF76EF86A42
:101130000800F5500009D8A4A0EF08F0A2EF08F0CD
:1011400089EF08F012009EAAA8EF08F0AAEF08F0B5
:10115000A3EF08F00E6AABA2B0EF08F0B2EF08F010
:10116000B4EF08F0AB98AB88AE501200896A8A6A77
:101170008B6A9268F80E936EBF0E946E1F0E7E6E91
:101180001F0E7F6E7C6AF18E1200076E9EA8CBEF59
:1011900008F0CDEF08F0C6EF08F007C0ADFF120071
:1011A0009EBAD5EF08F0D8EF08F0010ED9EF08F09D
:1011B000000E1200B6EC08F0F5EC08F06AEC08F04E
:1011C00012000E6A0D6A000125EF08F007C003F057
:1011D00008C004F0120007C005F008C006F01200B5
:1011E00007C001F008C002F01200620ED36E9B6AC5
:0211F0001200EB
:04FFFC00E1EF08F039
:020000040030CA
:0E000000FF081F1EFF8985FF0FC00FE00F4095
:00000001FF
