:0400000007EF00F016
:0A0008005F82DBED14F036EF16F016
:1008000000C60880084C08090809024300020100DC
:10081000C032090400000102020100052400100199
:100820000424020205240600010524010001070535
:10083000810308000209040100020A000000070504
:10084000020240000007058202400000340343001A
:10085000440043002000520053002D0032003300BA
:100860003200200045006D0075006C0061007400CE
:1008700069006F006E002000440065006D006F008D
:1008800034034D006900630072006F00630068006C
:1008900069007000200054006500630068006E006D
:1008A0006F006C006F0067007900200049006E0047
:1008B00063002E001201000202000008D8040A00A2
:1008C000000101020001040309040D0A50726F6364
:1008D000657373656420537472696E673A2025737B
:0B08E0000D0A00286E756C6C290000EA
:1008EC0004013205D8A47DEF04F07FEF04F09BEFF8
:1008FC0004F030511F0B0009D8A487EF04F089EFE6
:10090C0004F09BEF04F0438E030E3119D8A491EF41
:10091C0004F093EF04F098EF04F0010E0001FE6F69
:10092C009BEF04F0000E0001FE6F04013251D8A4BD
:10093C00A2EF04F0A4EF04F022EF06F030511F0BED
:10094C00020AD8A4ACEF04F0AEEF04F022EF06F0EC
:10095C0034510F0B0009D8B4B6EF04F0B8EF04F023
:10096C0022EF06F034510F0B156E030E1560C1EF1C
:10097C0004F0C3EF04F022EF06F0200E5C18D8A4AC
:10098C00CAEF04F0CCEF04F022EF06F0438E34BF34
:10099C00D2EF04F0D4EF04F0F1EF04F034510F0B6C
:1009AC00156E1550020D0A0EF324D96E010EF420AB
:1009BC00DA6EDECF1AF0DDCF1BF034510F0B156E53
:1009CC00166A1E0E1524D96E010E1620DA6EDF5033
:1009DC00196E0CEF05F034510F0B156E1550020DFE
:1009EC00460EF324D96E000EF420DA6EDECF1AF028
:1009FC00DDCF1BF034510F0B156E166A210E15242A
:100A0C00D96E010E1620DA6EDF50196E19B011EF87
:100A1C0005F013EF05F01BEF05F0FB0E1A141A6E20
:100A2C00FF0E1B141B6E20EF05F0040E1A101A6E2D
:100A3C001B501B6E34BF25EF05F027EF05F038EF88
:100A4C0005F034510F0B156E1550020D0A0EF324E0
:100A5C00D96E010EF420DA6E1AC0DEFF1BC0DDFF6A
:100A6C0047EF05F034510F0B156E1550020D460E65
:100A7C00F324D96E000EF420DA6E1AC0DEFF1BC010
:100A8C00DDFF030E3119D8A44EEF05F050EF05F041
:100A9C008AEF05F01AC0D9FF1BC0DAFFDFAE59EFA1
:100AAC0005F05BEF05F07CEF05F034BF60EF05F06F
:100ABC0062EF05F070EF05F034510F0B156E166AEE
:100ACC001E0E1524D96E010E1620DA6E0101DF827E
:100ADC007CEF05F034510F0B156E166A210E1524A0
:100AEC00D96E010E1620DA6E0101DF821AC0D9FF11
:100AFC001BC0DAFF000EDB841AC0D9FF1BC0DAFF63
:100B0C00000EDB8E22EF06F0040E1A181A6E1B5024
:100B1C001B6E1AC0D9FF1BC0DAFFDFAE98EF05F0D1
:100B2C009AEF05F0B6EF05F01AC0D9FF1BC0DAFF3B
:100B3C007F0EDF161AC0D9FF1BC0DAFF000EDB8C4C
:100B4C00000E0E6E050E0D6E1AC00FF01BC010F0CD
:100B5C00000E126E020E116E7EEC12F0BCEF05F060
:100B6C001AC0D9FF1BC0DAFF000EDB8C040E1A185A
:100B7C001A6E1B501B6E19B2C6EF05F0C8EF05F0CC
:100B8C00D3EF05F01AC0D9FF1BC0DAFFDFAED1EFEF
:100B9C0005F0D3EF05F00BEF06F0040134BFD9EFED
:100BAC0005F0DBEF05F0E9EF05F034510F0B156E96
:100BBC00166A1E0E1524D96E010E1620DA6E01016E
:100BCC00DF92F5EF05F034510F0B156E166A210EFE
:100BDC001524D96E010E1620DA6E0101DF921AC0AF
:100BEC00D9FF1BC0DAFF3B0EDF16000E0E6E050E92
:100BFC000D6E1AC00FF01BC010F0000E126E020E1C
:100C0C00116E7EEC12F011EF06F01AC0D9FF1BC06A
:100C1C00DAFF3B0EDF16040134510F0B156E166A0A
:100C2C00700E1524176E0F0E1620186E17C0D9FFF4
:100C3C0018C0DAFFFE0EDF1612005C04D8A429EFF0
:100C4C0006F02BEF06F038EF06F06DBA30EF06F039
:100C5C0032EF06F038EF06F0000E686E6980698896
:100C6C00020E5C6E68A43DEF06F03FEF06F049EF14
:100C7C0006F069A444EF06F046EF06F049EF06F0E3
:100C8C00689415EC16F06DA24EEF06F050EF06F0DE
:100C9C0053EF06F0A19A36EF07F068A058EF06F074
:100CAC005AEF06F067EF06F069A05FEF06F061EF10
:100CBC0006F067EF06F02BEC0AF0A08A040E5C6ECF
:100CCC00689068A86CEF06F06EEF06F077EF06F010
:100CDC0069A873EF06F075EF06F077EF06F011ECEC
:100CEC0017F068AC7CEF06F07EEF06F0A9EF06F08B
:100CFC0069AC83EF06F085EF06F093EF06F0000E7B
:100D0C000E6E730E0D6E000E0F6E000E106E000E3A
:100D1C00126E010E116E7EEC12F0689C71EC16F0E6
:100D2C005850D8B49CEF06F09EEF06F09FEF06F0FB
:100D3C0058065850D8A4A5EF06F0A7EF06F0A9EF77
:100D4C0006F07AEC0FF068AAAEEF06F0B0EF06F002
:100D5C00B9EF06F069AAB5EF06F0B7EF06F0B9EFF8
:100D6C0006F0ABEC14F068A2BEEF06F0C0EF06F094
:100D7C00D6EF06F069A2C5EF06F0C7EF06F0D6EF86
:100D8C0006F07F0E0E6E0D68000E0F6E000E106ECC
:100D9C00000E126E010E116E7EEC12F0000E6A6ED9
:100DAC00040E5C60DCEF06F0DEEF06F0E1EF06F01F
:100DBC00A19A36EF07F069A6E6EF06F0E8EF06F029
:100DCC0035EF07F0000E1D6E68A6EFEF06F0F1EFA1
:100DDC0006F035EF07F06CCF5DF05D30E832E832AD
:100DEC000F0B596E68965DB4FEEF06F000EF07F03E
:100DFC000AEF07F01E0E5924D96EDA6A010EDA22B8
:100E0C000101DF7012EF07F0210E5924D96EDA6A56
:100E1C00010EDA220101DF705950D8A418EF07F047
:100E2C001AEF07F01EEF07F0C8EC11F02CEF07F0EB
:100E3C00000E0E6E720E0D6E5D0E0F6E000E106EAD
:100E4C00000E126E000E116E7EEC12F01D2A030EB7
:100E5C001D6433EF07F035EF07F0EAEF06F0A19AC7
:100E6C001200A09A010124512511D8B440EF07F0CB
:100E7C0042EF07F050EF07F024C1D9FF25C1DAFF8C
:100E8C00DFAE4BEF07F04DEF07F050EF07F0A08A05
:100E9C001AEF08F0030E5518D8A457EF07F059EFC6
:100EAC0007F05BEF07F0000E556E5550D8A461EFBC
:100EBC0007F063EF07F066EF07F0A08A1AEF08F06F
:100ECC00020E5518D8A46DEF07F06FEF07F082EF04
:100EDC0007F0010E286E000E296E000E2A6E000E11
:100EEC002B6E020E19EC0CF028C024F129C025F150
:100EFC00030E556E19EF08F05504D8A488EF07F0CF
:100F0C008AEF07F019EF08F0400E546490EF07F0E9
:100F1C0092EF07F096EF07F0400E346E98EF07F063
:100F2C0054C034F03450545C546E000E186F050EDF
:100F3C00196F34C033F02951D8A4A7EF07F0A9EFEB
:100F4C0007F0EBEF07F0C6EF07F01BC1F6FF1CC173
:100F5C00F7FFF86A18C1D9FF19C1DAFF070EF76459
:100F6C0003D00800F55005D0F6CFE1FFF7CFE2FF34
:100F7C00E750DF6E0101184B192B1B4B1C2B330652
:100F8C003350D8A4CCEF07F0CEEF07F0ABEF07F05F
:100F9C00F3EF07F01BC1F6FF1CC1F7FFF86A18C18D
:100FAC00D9FF19C1DAFF070EF76403D00800F5501A
:100FBC0005D0F6CFE1FFF7CFE2FFE750DF6E01017E
:100FCC00184B192B1B4B1C2B33063350D8A4F1EFA9
:100FDC0007F0F3EF07F0D0EF07F05450D8A4F9EF77
:100FEC0007F0FBEF07F00AEF08F0400E3418D8A416
:100FFC0002EF08F004EF08F008EF08F0020E556E4F
:10100C000AEF08F0030E556E010E286E000E296EC5
:10101C00050E2A6E34C02BF0020E19EC0CF028C011
:10102C0024F129C025F1A08A1200200E5C6021EF6A
:10103C0008F023EF08F025EF08F0DBEF08F06DA2C5
:10104C002AEF08F02CEF08F02EEF08F0DBEF08F099
:10105C005550D8A434EF08F036EF08F0D9EF08F06B
:10106C00920E336E010E346E400E356E24EC12F07F
:10107C000001F66F000EF76FD0EF08F0920EF72517
:10108C00D96EDA6A010EDA22DF50F86F0D0EF819FC
:10109C00D8A453EF08F055EF08F0B5EF08F02E0E7A
:1010AC00FA25D96EDA6A010EDA22000EDF6E000E16
:1010BC00F96F8DEF08F02E0EF925D96EDA6A010E54
:1010CC00DA22600EDF646DEF08F06FEF08F08CEF42
:1010DC0008F02E0EF925D96EDA6A010EDA227B0E93
:1010EC00DF607BEF08F07DEF08F08CEF08F02E0E40
:1010FC00F925D96EDA6A010EDA222E0EF925E16E87
:10110C00E26A010EE222E750E00FDF6EF92BFA5192
:10111C00F95DD8A094EF08F096EF08F061EF08F0B5
:10112C00600E286E000E296ECA0E2A6E080E2B6EEB
:10113C002E0E2C6E010E2D6E57EC0DF0600E286EDF
:10114C00000E296E41EC14F0E00E286E080E296E8C
:10115C0007EC14F0000E0001FA6FCEEF08F0630EEE
:10116C00FA61BBEF08F0BDEF08F0CEEF08F02E0EE1
:10117C00FA25D96EDA6A010EDA22F8C0DFFFFA2BF3
:10118C00F80E286E000E296E010E2A6E29EC17F04F
:10119C000001F72BF651F75DD8A0D7EF08F0D9EF87
:1011AC0008F044EF08F037EC07F012006D9843BEDE
:1011BC00E2EF08F0E4EF08F02CEF09F03BAEE9EFBA
:1011CC0008F0EBEF08F000EF09F0020E5A6E010187
:1011DC002B51D8A4F4EF08F0F6EF08F0F8EF08F074
:1011EC00D6EC12F0000E01012D6F000E0001FB6F0A
:1011FC0083EF09F020EE01F05050D9265150DA223D
:10120C00080EDF6E20EE02F05050D9265150DA2233
:10121C00300EDE6E040EDD6E50C0D9FF51C0DAFF09
:10122C000C0EDF6E50C0D9FF51C0DAFF000EDB8E02
:10123C0046C0D9FF47C0DAFF040EDF6E46C0D9FFA7
:10124C0047C0DAFF000EDB8E83EF09F0040130AFEC
:10125C0032EF09F034EF09F053EF09F0010E5A6E3A
:10126C0001012C51D8A43DEF09F03FEF09F041EFFB
:10127C0009F0D6EC12F0000E01012D6F000E0001EA
:10128C00FB6F5750D8A44DEF09F04FEF09F083EFE7
:10129C0009F07AEC0FF083EF09F0020E5A6E20EE93
:1012AC0001F05050D9265150DA22080EDF6E20EE94
:1012BC0002F05050D9265150DA22300EDE6E040E58
:1012CC00DD6E50C0D9FF51C0DAFF040EDF6E50C086
:1012DC00D9FF51C0DAFF000EDB8E000E01012D6F1D
:1012EC00000E0001FB6F5750D8A47FEF09F081EF7F
:1012FC0009F083EF09F04FEF09F01200A09A000EED
:10130C006A6E000E686E000E706E710E286E0F0EF7
:10131C00296E000E2B6E000E2A6E000E2D6E020E24
:10132C002C6E55EC16F0160E6F6E9F0E6B6E7B0EC0
:10133C00696E000E306E3050040D000EF324D96E21
:10134C00040EF420DA6EDE6ADE6ADE6ADD6A302AAA
:10135C000B0E3064B4EF09F0B6EF09F0A1EF09F011
:10136C006D8C000E6E6E6D986D9C6896000E436EC3
:10137C00000E3B6E000E3D6E000E3C6E68B6C9EF63
:10138C0009F0CBEF09F0BBEF09F0010E0001FB6F88
:10139C00010E01012D6F000E2C6F000E2B6F000E35
:1013AC000001FD6F000E306E3050020D460EF3241E
:1013BC00D96E000EF420DA6E000EDE6E000EDD6EBD
:1013CC003050020D0A0EF324D96E010EF420DA6EA1
:1013DC00000EDE6E000EDD6E210E3024D96EDA6A40
:1013EC00010EDA22000EDF6E1E0E3024D96EDA6A80
:1013FC00010EDA22000EDF6E302A020E306409EF85
:10140C000AF00BEF0AF0DAEF09F0080E466E040E44
:10141C00476E160E706E040E0401036F300E026FD1
:10142C00080E016F040E006F008F000E5E6E000E32
:10143C000101146F000E156F000E166F000E176F62
:10144C00000E2A6F000E5C6E1200A09A000E6A6EDF
:10145C00000E686E000E706E710E016E0F0E026E35
:10146C00000E046E000E036E000E066E020E056E6C
:10147C008DEC16F0160E6F6E9F0E6B6E7B0E696EFA
:10148C00000E096E0950040D000EF324D96E040EE3
:10149C00F420DA6EDE6ADE6ADE6ADD6A092A0B0E79
:1014AC0009645BEF0AF05DEF0AF048EF0AF06D8C0F
:1014BC00000E6E6E6D986D9C6896000E436E000E5D
:1014CC003B6E000E3D6E000E3C6E68B670EF0AF07F
:1014DC0072EF0AF062EF0AF0010E0001FB6F010ED1
:1014EC0001012D6F000E2C6F000E2B6F000E0001F2
:1014FC00FD6F000E096E0950020D460EF324D96ED5
:10150C00000EF420DA6E000EDE6E000EDD6E095059
:10151C00020D0A0EF324D96E010EF420DA6E000EC1
:10152C00DE6E000EDD6E210E0924D96EDA6A010E14
:10153C00DA22000EDF6E1E0E0924D96EDA6A010E55
:10154C00DA22000EDF6E092A020E0964B0EF0AF0EF
:10155C00B2EF0AF081EF0AF0080E466E040E476EE9
:10156C00160E706E040E0401036F300E026F080E1F
:10157C00016F040E006F008F000E5E6E000E0101F5
:10158C00146F000E156F000E166F000E176F000E05
:10159C002A6F000E5C6E1200800E04013019D8A464
:1015AC00DAEF0AF0DCEF0AF077EF0BF0C00E436EC7
:1015BC0068EF0BF0B40E406E080E416E000E456ED7
:1015CC00120E446E77EF0BF03251D8A4F0EF0AF004
:1015DC00F2EF0AF030EF0BF03251020D070EF3244C
:1015EC00F66E080EF420F76E0900F5CF40F00A00F5
:1015FC00F5CF41F0020E4024016E000E4120026E28
:10160C0001C0F6FF02C0F7FFF86A070EF76403D0BB
:10161C000800F55005D0F6CFE1FFF7CFE2FFE75019
:10162C00446E030E4024016E000E4120026E01C078
:10163C00F6FF02C0F7FFF86A070EF76403D0080044
:10164C00F55005D0F6CFE1FFF7CFE2FFE750456E3E
:10165C0077EF0BF0000E436E77EF0BF0030E326159
:10166C003AEF0BF03CEF0BF060EF0BF03251020D48
:10167C00010EF324F66E080EF420F76E0900F5CF78
:10168C0040F00A00F5CF41F040C0F6FF41C0F7FF33
:10169C00F86A070EF76403D00800F55005D0F6CFB2
:1016AC00E1FFF7CFE2FFE750016E0150446E456A4F
:1016BC0077EF0BF0000E436E77EF0BF0000E436EDE
:1016CC0077EF0BF03351010AD8B4E0EF0AF0030ABC
:1016DC00D8B4EAEF0AF0010AD8B434EF0BF064EF97
:1016EC000BF0120020EE01F05250D9265350DA22A2
:1016FC00DF50026E02503C5C000E3D58D8B089EFB2
:10170C000BF08BEF0BF08DEF0BF03CC002F00250A6
:10171C003C5E000E3D5A000E016EA4EF0BF0380E2D
:10172C000124D96EDA6A040EDA2238C0E1FF39C01E
:10173C00E2FFDFCFE7FF384A392A012A0250015C69
:10174C00D8A0ABEF0BF0ADEF0BF095EF0BF03C50DE
:10175C003D10D8B4B4EF0BF0B6EF0BF0EFEF0BF08D
:10176C0020EE01F05050D9265150DA22080EDF6ECF
:10177C0020EE02F05050D9265150DA22380EDE6E8F
:10178C00040EDD6E52C0D9FF53C0DAFFDFBCD1EFBF
:10179C000BF0D3EF0BF0E1EF0BF050C0D9FF51C0C1
:1017AC00DAFF480EDF6E50C0D9FF51C0DAFF000ED1
:1017BC00DB8E18EF0CF050C0D9FF51C0DAFF080EC9
:1017CC00DF6E50C0D9FF51C0DAFF000EDB8E18EF70
:1017DC000CF020EE01F05050D9265150DA22080EB0
:1017EC00DF6E20EE02F05050D9265150DA22300E26
:1017FC00DE6E040EDD6E50C0D9FF51C0DAFF040E50
:10180C00DF6E50C0D9FF51C0DAFF000EDB8E3B9E5D
:10181C005750D8A414EF0CF016EF0CF018EF0CF096
:10182C007AEC0FF01200306E2850D8B420EF0CF088
:10183C0022EF0CF030EF0CF03050020D460EF3247A
:10184C00D96E000EF420DA6EDECF31F0DDCF32F03F
:10185C003CEF0CF03050020D0A0EF324D96E010E41
:10186C00F420DA6EDECF31F0DDCF32F031503210B1
:10187C00D8A443EF0CF045EF0CF04BEF0CF0000E3E
:10188C00286E000E296EB7EF0CF020EE02F03150EE
:10189C00D9263250DA2229C0DEFF2AC0DDFF20EE25
:1018AC0001F03150D9263250DA222BC0DFFF31C083
:1018BC00D9FF32C0DAFF400EDF1631C0D9FF32C07B
:1018CC00DAFF000EDB8631C0D9FF32C0DAFF000E22
:1018DC00DB8E2850D8B475EF0CF077EF0CF096EF48
:1018EC000CF03050020D460EF324D96E000EF4208D
:1018FC00DA6EDECF2CF0DDCF2DF0040E2C182E6E10
:10190C002D502F6E3050020D460EF324D96E000E62
:10191C00F420DA6E2EC0DEFF2FC0DDFFB3EF0CF02B
:10192C003050020D0A0EF324D96E010EF420DA6E3B
:10193C00DECF2CF0DDCF2DF0040E2C182E6E2D509A
:10194C002F6E3050020D0A0EF324D96E010EF420C6
:10195C00DA6E2EC0DEFF2FC0DDFF31C028F032C0A2
:10196C0029F01200096E0150D8B4BFEF0CF0C1EF92
:10197C000CF0CFEF0CF00950020D460EF324D96E8B
:10198C00000EF420DA6EDECF0AF0DDCF0BF0DBEFC9
:10199C000CF00950020D0A0EF324D96E010EF4203E
:1019AC00DA6EDECF0AF0DDCF0BF00A500B10D8A4A4
:1019BC00E2EF0CF0E4EF0CF0EAEF0CF0000E016E2D
:1019CC00000E026E56EF0DF020EE02F00A50D926F2
:1019DC000B50DA2202C0DEFF03C0DDFF20EE01F067
:1019EC000A50D9260B50DA2204C0DFFF0AC0D9FFF7
:1019FC000BC0DAFF400EDF160AC0D9FF0BC0DAFFAE
:101A0C00000EDB860AC0D9FF0BC0DAFF000EDB8E9E
:101A1C000150D8B414EF0DF016EF0DF035EF0DF0BA
:101A2C000950020D460EF324D96E000EF420DA6E26
:101A3C00DECF05F0DDCF06F0040E0518076E06505C
:101A4C00086E0950020D460EF324D96E000EF420D8
:101A5C00DA6E07C0DEFF08C0DDFF52EF0DF0095053
:101A6C00020D0A0EF324D96E010EF420DA6EDECFCD
:101A7C0005F0DDCF06F0040E0518076E0650086E53
:101A8C000950020D0A0EF324D96E010EF420DA6E01
:101A9C0007C0DEFF08C0DDFF0AC001F00BC002F07A
:101AAC0012002C0E2E6E000E2F6ED4EF0DF0250EA4
:101ABC003018D8B464EF0DF066EF0DF070EF0DF048
:101ACC0028C0D9FF29C0DAFF30C0DFFF284A292AF5
:101ADC00D4EF0DF0C0EF0DF02EC0D9FF2FC0DAFF00
:101AEC00DECF31F0DDCF32F0020E2E26000E2F228B
:101AFC0031503210D8A485EF0DF087EF0DF0A6EF22
:101B0C000DF0E30E316E080E326EA6EF0DF031C003
:101B1C00F6FF32C0F7FFF86A28C0D9FF29C0DAFFF8
:101B2C00070EF76403D00800F55005D0F6CFE1FF9F
:101B3C00F7CFE2FFE750DF6E314A322A284A292AD2
:101B4C0031C0F6FF32C0F7FFF86A070EF76403D016
:101B5C000800F55005D0F6CFE1FFF7CFE2FFE750D4
:101B6C000009D8A4BCEF0DF0BEEF0DF08DEF0DF019
:101B7C00D4EF0DF02AC0F6FF2BC0F7FF2A4A2B2A10
:101B8C000800F5CF30F03050000AD8B4E5EF0DF076
:101B9C00730AD8B472EF0DF0D4EF0DF02AC0F6FF33
:101BAC002BC0F7FF2A4A2B2A0800F5CF30F0305013
:101BBC00D8A4E3EF0DF0E5EF0DF05DEF0DF028C0CC
:101BCC00D9FF29C0DAFF000EDF6E1200080E016E7D
:101BDC00455007E1080E445CD8B0F7EF0DF0F9EF73
:101BEC000DF011EF0EF044C001F05B50D8A401EFE2
:101BFC000EF003EF0EF007EF0EF0010E5B6E11EF1F
:101C0C000EF05B04D8A40DEF0EF00FEF0EF011EFF9
:101C1C000EF0020E5B6E0150445E000E455A20EE33
:101C2C0001F04650D9264750DA2201C0DFFF380EAA
:101C3C000101266F040E276F43B027EF0EF029EF3A
:101C4C000EF06BEF0EF046EF0EF040C0F6FF41C009
:101C5C00F7FFF86A26C1D9FF27C1DAFF070EF76430
:101C6C0003D00800F55005D0F6CFE1FFF7CFE2FF27
:101C7C00E750DF6E404A412A0101264B272B010613
:101C8C000150D8A44CEF0EF04EEF0EF02BEF0EF0EF
:101C9C0073EF0EF040C0F6FF41C0F7FFF86A26C1A3
:101CAC00D9FF27C1DAFF070EF76403D00800F550FF
:101CBC0005D0F6CFE1FFF7CFE2FFE750DF6E404AE9
:101CCC00412A0101264B272B01060150D8A471EFA4
:101CDC000EF073EF0EF050EF0EF0120004013039DD
:101CEC00E832030B0009D8B47EEF0EF080EF0EF053
:101CFC00C8EF0EF0F7EF0EF0438E080E5C6EF7EFA8
:101D0C000EF0D2EC0AF0F7EF0EF0E5EC10F0F7EF76
:101D1C000EF05E0E406E000E416E4380010E446E5E
:101D2C00438EF7EF0EF0F5EC0FF0F7EF0EF076ECCC
:101D3C0004F0F7EF0EF0E10E3425406E416A010E0F
:101D4C0041224380010E446E438EF7EF0EF0438E1A
:101D5C00E10E3425D96EDA6A010EDA2232C4DFFFC5
:101D6C00F7EF0EF0000E0E6E020E0D6E000E0F6EE3
:101D7C00000E106E000E126E000E116E7EEC12F044
:101D8C00F7EF0EF03151000AD8B499EF0EF0010ABA
:101D9C00D8B49DEF0EF0020AD8B49DEF0EF0060AEF
:101DAC00D8B482EF0EF0030AD8B487EF0EF0010A14
:101DBC00D8B4B8EF0EF00F0AD8B48FEF0EF0010ABA
:101DCC00D8B48BEF0EF0030AD8B4A1EF0EF0010AD1
:101DDC00D8B4ADEF0EF0070AD8B4F7EF0EF0F7EF6A
:101DEC000EF0120046C0D9FF47C0DAFF000EDFBC70
:101DFC00010E026E040E4618466E4750476E080ED2
:101E0C005C18D8A40CEF0FF00EEF0FF020EF0FF0D2
:101E1C00040132517F0B6E6E6E50D8B418EF0FF078
:101E2C001AEF0FF01EEF0FF0100E5C6E20EF0FF09C
:101E3C00040E5C6E5A04D8A426EF0FF028EF0FF0B6
:101E4C006FEF0FF020EE02F04650D9264750DA2201
:101E5C00380EDE6E040EDD6EECEC0DF0020E5B182F
:101E6C00D8A43BEF0FF03DEF0FF04BEF0FF046C057
:101E7C00D9FF47C0DAFF040EDF6E46C0D9FF47C05A
:101E8C00DAFF000EDB8E79EF0FF00250D8A451EF81
:101E9C000FF053EF0FF061EF0FF046C0D9FF47C0C2
:101EAC00DAFF480EDF6E46C0D9FF47C0DAFF000EDE
:101EBC00DB8E79EF0FF046C0D9FF47C0DAFF080E72
:101ECC00DF6E46C0D9FF47C0DAFF000EDB8E79EF1C
:101EDC000FF03BAE74EF0FF076EF0FF077EF0FF0E3
:101EEC003B9E000E5A6E12000001FB51D8A481EFEC
:101EFC000FF083EF0FF0F4EF0FF0010EFB6F010109
:101F0C002D51D8A48CEF0FF08EEF0FF0F4EF0FF0F3
:101F1C00010E2D6F020E5A18D8A497EF0FF099EFFF
:101F2C000FF0AFEF0FF020EE01F04650D9264750DE
:101F3C00DA22000EDF6E46C0D9FF47C0DAFF480E2A
:101F4C00DF6E46C0D9FF47C0DAFF000EDB8EF4EF20
:101F5C000FF05A04D8A4B5EF0FF0B7EF0FF0F4EF71
:101F6C000FF0000E0001FC6F20EE01F05250D9264C
:101F7C005350DA22080EDF6E20EE02F05250D926B2
:101F8C005350DA22300EDE6E040EDD6E52C0D9FFD5
:101F9C0053C0DAFF040EDF6E52C0D9FF53C0DAFF14
:101FAC00000EDB8E010EFC6F20EE01F05050D92696
:101FBC005150DA22080EDF6E20EE02F05050D92676
:101FCC005150DA22300EDE6E040EDD6E50C0D9FF99
:101FDC0051C0DAFF800EDF6EF4EF0FF01200000E2E
:101FEC000401386F000E396F4FEF10F0438E000173
:101FFC00FE05D8A404EF10F006EF10F05FEF10F020
:10200C00040138835FEF10F0438E5FEF10F0438EC6
:10201C0034BF13EF10F015EF10F026EF10F0345121
:10202C000F0B016E0150020D0A0EF324D96E010E36
:10203C00F420DA6EDECF02F0DDCF03F035EF10F0D6
:10204C0034510F0B016E0150020D460EF324D96E64
:10205C00000EF420DA6EDECF02F0DDCF03F002C00A
:10206C00D9FF03C0DAFFDFAE3EEF10F040EF10F007
:10207C005FEF10F002C0D9FF03C0DAFFDFA449EF15
:10208C0010F04BEF10F05FEF10F0010E386F5FEFB8
:10209C0010F030511F0B000AD8B4FCEF0FF0010AFE
:1020AC00D8B40AEF10F0030AD8B40DEF10F05FEFBC
:1020BC0010F043AE64EF10F066EF10F06DEF10F01F
:1020CC00380E406E040E416E4380020E446E1200B8
:1020DC00040130511F0BE806D8B477EF10F079EFFC
:1020EC0010F07BEF10F0E4EF10F03039E832030B16
:1020FC00E806D8B484EF10F086EF10F088EF10F0FB
:10210C00E4EF10F03451D8B48EEF10F090EF10F0E3
:10211C00CDEF10F03405D8B496EF10F098EF10F026
:10212C00CDEF10F0E4EF10F0D20E406E010E416EC8
:10213C00000E456E080E446E4380438EE4EF10F0A3
:10214C00D20E406E010E416E438EE4EF10F036C499
:10215C003CF037C43DF0DA0E386E010E396E000ECD
:10216C003E6E000E3F6E3B8EE4EF10F0DA0E406ECA
:10217C00010E416E000E456E070E446EC10E436E8D
:10218C00E4EF10F032C428F1438EE4EF10F031513B
:10219C00000AD8B49AEF10F0010AD8B4A6EF10F0E8
:1021AC00210AD8B4ADEF10F0010AD8B4BCEF10F08E
:1021BC00030AD8B4C8EF10F0E4EF10F01200438E0D
:1021CC00710E016E0F0E026E000E046E000E036E89
:1021DC00000E066E020E056E8DEC16F0000E016EF2
:1021EC00040E026E000E046E000E036E000E066EE0
:1021FC00300E056E8DEC16F06D8C000E156E210EEA
:10220C001524D96EDA6A010EDA22000EDF6E1E0E6C
:10221C001524D96EDA6A010EDA22000EDF6E152A49
:10222C00020E15641CEF11F01EEF11F005EF11F00A
:10223C00E10E016E010E026E000E046E000E036EB6
:10224C00000E066E020E056E8DEC16F06D9C080EDF
:10225C00466E040E476E000E526E040E536E52C044
:10226C0050F053C051F032C45EF05E50D8A441EF30
:10227C0011F043EF11F047EF11F0100E5C6E57EFB9
:10228C0011F0000E0E6E010E0D6E5E0E0F6E000E36
:10229C00106E000E126E010E116E7EEC12F0200EFE
:1022AC005C6E12006DA25DEF11F05FEF11F0BEEFEE
:1022BC0011F0010EA5EC15F0C7EF11F04C044D1008
:1022CC00D8A46BEF11F06DEF11F072EF11F0010E5D
:1022DC007EEC15F0C5EF11F04B0E4C184D10D8A438
:1022EC007AEF11F07CEF11F081EF11F0010EA5ECFB
:1022FC0015F0C5EF11F04D5009E1970E4C5CD8A0CC
:10230C008AEF11F08CEF11F092EF11F0000E4D6E80
:10231C00000E4C6EC5EF11F0C5EF11F04C044D10D2
:10232C00D8A49BEF11F09DEF11F0A2EF11F0010E6C
:10233C007EEC15F0C5EF11F0320E4C184D10D8A4F0
:10234C00AAEF11F0ACEF11F0B1EF11F0010EA5EC0A
:10235C0015F0C5EF11F0B70E4C5C030E4D58D8A01C
:10236C00BAEF11F0BCEF11F0C5EF11F08CEF11F0DA
:10237C005C50200AD8B464EF11F094EF11F04C4A81
:10238C004D2A12002D0E586E5DC01CF0FD0E1C1651
:10239C00D8A4D3EF11F0D5EF11F017EF12F05DC008
:1023AC001CF0D8901C323F0E1C161C50040D000E55
:1023BC00F324526E040EF420536E52C050F053C0EE
:1023CC0051F0040E5018506E5150516E52C0D9FF3E
:1023DC0053C0DAFFDF30E8320F0B0D0AD8A4F9EF47
:1023EC0011F0FBEF11F013EF12F0300E016E040E32
:1023FC00026E20EE02F05250D9265350DA22DECF74
:10240C0003F0DDCF04F0000E066E080E056E08EC2E
:10241C0015F083EC13F023EF12F0CCEC13F023EF58
:10242C0012F05D50FD0B040AD8A41FEF12F021EF3F
:10243C0012F023EF12F0F8EC0EF01200000E566EB4
:10244C004E504F10D8B42DEF12F02FEF12F03AEF90
:10245C0012F04EC0D9FF4FC0DAFFDFBE38EF12F0DA
:10246C003AEF12F07CEF12F020EE01F04E50D9262C
:10247C004F50DA223550DE5CD8B047EF12F049EFFE
:10248C0012F051EF12F020EE01F04E50D9264F50C1
:10249C00DA22DF50356E000E566E64EF12F0400EED
:1024AC005624D96EDA6A050EDA2256503324E16EC0
:1024BC00000E3420E26EDFCFE7FF562A3550565C13
:1024CC00D8A06BEF12F06DEF12F055EF12F0000E7A
:1024DC00286E400E296E050E2A6E400E2B6E020ED3
:1024EC0019EC0CF028C04EF029C04FF056501200D9
:1024FC009CEF12F058EC11F0D5EF12F058EC11F0F3
:10250C00010EC4EC16F0D5EF12F058EC11F0020EDF
:10251C00C4EC16F0D5EF12F079EC14F03FEC17F098
:10252C00D5EF12F06EEC10F0D5EF12F00DC013F0E9
:10253C000EC014F01450000AD8B4ABEF12F07F0A9E
:10254C00D8B4CEEF12F0D5EF12F01350010AD8B474
:10255C0092EF12F0030AD8B4D5EF12F0010AD8B4F6
:10256C0098EF12F0060AD8B4D5EF12F0770AD8B467
:10257C00D5EF12F0010AD8B480EF12F0070AD8B4E4
:10258C008BEF12F0010AD8B484EF12F0D5EF12F0F1
:10259C001350FF0AD8B4D5EF12F0D5EF12F0120099
:1025AC00000E01012C6F000E2B6F020E5A18D8A4CE
:1025BC00E2EF12F0E4EF12F004EF13F020EE01F072
:1025CC005050D9265150DA22080EDF6E20EE02F060
:1025DC005050D9265150DA22380EDE6E040EDD6EC4
:1025EC0050C0D9FF51C0DAFF480EDF6E50C0D9FF82
:1025FC0051C0DAFF000EDB8E2CEF13F044500401B7
:10260C00365D45503759D8B00EEF13F010EF13F07C
:10261C0014EF13F036C444F037C445F0ECEC0DF075
:10262C0020EE02F04650D9264750DA22380EDE6EE4
:10263C00040EDD6E46C0D9FF47C0DAFF480EDF6ED0
:10264C0046C0D9FF47C0DAFF000EDB8E1200066EC3
:10265C00000E076E040E086E0150026E036AD890CD
:10266C00023603360650046E056AD89004360536D9
:10267C00D890043605360250042603500522D89013
:10268C0004360536D8900436053604500726055016
:10269C00082207C0D9FF08C0DAFFDF9E0150D8A47A
:1026AC005AEF13F05CEF13F06AEF13F00650020DC3
:1026BC000A0EF324D96E010EF420DA6E07C0DEFF89
:1026CC0008C0DDFF76EF13F00650020D460EF32422
:1026DC00D96E000EF420DA6E07C0DEFF08C0DDFFF5
:1026EC0007C0D9FF08C0DAFFDF9C20EE04F00750CA
:1026FC00D9260850DA22DF8C1200000E5B6E000E19
:10270C00576E000E01012C6F000E2B6F000E000196
:10271C00FC6F000E5A6E46C0D9FF47C0DAFF7F0E21
:10272C00DF16040E4618466E4750476E46C0D9FF5A
:10273C0047C0DAFF7F0EDF16040E4618466E475070
:10274C00476E50C0D9FF51C0DAFF7F0EDF16000E66
:10275C00436E000E456E000E446E000E3B6E000E76
:10276C003D6E000E3C6E74EC0EF0000E0E6E030E01
:10277C000D6E000E0F6E000E106E000E126E000E1F
:10278C00116E7EEC12F0DCEC08F01200020E5A18FE
:10279C00D8A4D3EF13F0D5EF13F0D9EF13F078ECF6
:1027AC000BF006EF14F0000E5A6E0001FC51D8A489
:1027BC00E2EF13F0E4EF13F004EF14F020EE01F06D
:1027CC005050D9265150DA22080EDF6E20EE02F05E
:1027DC005050D9265150DA22300EDE6E040EDD6ECA
:1027EC0050C0D9FF51C0DAFF0C0EDF6E50C0D9FFBC
:1027FC0051C0DAFF000EDB8E06EF14F0000EFC6FFA
:10280C001200A09A5550D8B40EEF14F010EF14F03B
:10281C0013EF14F0A08A40EF14F0000E2C6E28C0B9
:10282C002AF029C02BF02C2A2C28D8A420EF14F045
:10283C0022EF14F024EF14F034EF14F02AC0F6FF5A
:10284C002BC0F7FF2A4A2B2A0800F5500009D8A400
:10285C0032EF14F034EF14F019EF14F028C01BF120
:10286C0029C01CF12CC054F0000E0101296F010E7F
:10287C00556EA08A1200A09A5550D8B448EF14F0A7
:10288C004AEF14F04DEF14F0A08A78EF14F0000E1C
:10289C002C6E28C02AF029C02BF02C2A2C28D8A466
:1028AC005AEF14F05CEF14F05EEF14F06CEF14F0D0
:1028BC002AC0D9FF2BC0DAFF2A4A2B2ADF50D8A412
:1028CC006AEF14F06CEF14F053EF14F028C01BF106
:1028DC0029C01CF12CC054F0010E0101296F010E0E
:1028EC00556EA08A1200000E0101DA6F4B0EDB6FE1
:1028FC00000EDC6F000EDD6F000EDE6F000EDF6F62
:10290C00080EE06F000E566E1A0E096E010ECCEC1E
:10291C0015F01E0E096E020ECCEC15F0000E016EB9
:10292C00400E026E050E036E400E046E020EB8ECE5
:10293C000CF001C04EF002C04FF0000E0101246FEC
:10294C00000E256F000E556E120070A0B0EF14F043
:10295C00B2EF14F0D9EF14F052C0D9FF53C0DAFF24
:10296C00800EDE18D8A4BDEF14F0BFEF14F0D8EF32
:10297C0014F046C0D9FF47C0DAFF840EDE18D8A485
:10298C00CAEF14F0CCEF14F0D8EF14F052C0D9FF0A
:10299C0053C0DAFF0C0EDF6E52C0D9FF53C0DAFF02
:1029AC00000EDB8E7090689A12000600E1CF1EF0CC
:1029BC00E2CF1FF0D9CF20F0DACF21F0F3CF22F005
:1029CC00F4CF23F0F6CF24F0F7CF25F0F8CF26F094
:1029DC00F5CF27F023EC06F027C0F5FF26C0F8FF53
:1029EC0025C0F7FF24C0F6FF23C0F4FF22C0F3FF7D
:1029FC0021C0DAFF20C0D9FF1FC0E2FF1EC0E1FFDB
:102A0C005F92110003C009F004C00AF001C007F086
:102A1C0002C008F022EF15F009C0D9FF0AC0DAFF96
:102A2C00DF500B6E094A0A2A07C0D9FF08C0DAFF2B
:102A3C000BC0DFFF074A082A0506D8A006060528A2
:102A4C0006E10628D8A42DEF15F02FEF15F012EFA4
:102A5C0015F01200286E3FEF15F0959056EF15F01B
:102A6C00959256EF15F0959456EF15F0959656EF06
:102A7C0015F02850000AD8B456EF15F0010AD8B456
:102A8C0033EF15F0030AD8B436EF15F0010AD8B4B9
:102A9C0039EF15F0070AD8B43CEF15F056EF15F0E6
:102AAC001200016E66EF15F095907DEF15F0959282
:102ABC007DEF15F095947DEF15F095967DEF15F063
:102ACC000150000AD8B47DEF15F0010AD8B45AEFC2
:102ADC0015F0030AD8B45DEF15F0010AD8B460EF15
:102AEC0015F0070AD8B463EF15F07DEF15F012005E
:102AFC00016E8DEF15F08C80A4EF15F08C82A4EF95
:102B0C0015F08C84A4EF15F08C86A4EF15F0015011
:102B1C00000AD8B4A4EF15F0010AD8B481EF15F06F
:102B2C00030AD8B484EF15F0010AD8B487EF15F076
:102B3C00070AD8B48AEF15F0A4EF15F01200016E55
:102B4C00B4EF15F08C90CBEF15F08C92CBEF15F019
:102B5C008C94CBEF15F08C96CBEF15F00150000A4E
:102B6C00D8B4CBEF15F0010AD8B4A8EF15F0030ACE
:102B7C00D8B4ABEF15F0010AD8B4AEEF15F0070AD4
:102B8C00D8B4B1EF15F0CBEF15F012000C6E09A410
:102B9C00D2EF15F0D4EF15F0D9EF15F0000E016E51
:102BAC000C502DEC13F009A2DEEF15F0E0EF15F050
:102BBC00E5EF15F0010E016E0C502DEC13F0700EBC
:102BCC000C240A6E0B6A0F0E0B220AC0D9FF0BC025
:102BDC00DAFF09C0DFFF12005C50D8A4F8EF15F043
:102BEC00FAEF15F014EF16F0000E6D6E000E696E14
:102BFC00160E6F6E9F0E6B6E7B0E696ED08EA28A58
:102C0C00A08AF28E0BEF16F06D866DA610EF16F003
:102C1C0012EF16F00AEF16F0010E5C6E1200000EA9
:102C2C000001FD6F000E0E6E740E0D6E000E0F6E19
:102C3C00000E106E000E126E000E116E7EEC12F075
:102C4C006D9269942BEF16F0689468B430EF16F01F
:102C5C0032EF16F02AEF16F0000E01012A6F120067
:102C6C0002EE00F0400EEE6AE806FDE101EE00F027
:102C7C00E30EEE6AE806FDE10001FE6BFD6BFC6BFA
:102C8C00FB6BFA6B00EE38F0270EEE6AE806FDE1FE
:102C9C005F905F92000EF86E000152EF17F028C0A3
:102CAC002EF029C02FF063EF16F02EC0D9FF2FC0E5
:102CBC00DAFF2AC0DFFF2E4A2F2A2C06D8A02D06B9
:102CCC002C2806E12D28D8A46EEF16F070EF16F024
:102CDC005BEF16F01200010E01011427000E1523F4
:102CEC00162317230001FD51D8A47FEF16F081EFB6
:102CFC0016F08CEF16F001012A2B2A51D8A489EF7B
:102D0C0016F08BEF16F08CEF16F02A69120001C04A
:102D1C0007F002C008F09BEF16F007C0D9FF08C0FF
:102D2C00DAFF03C0DFFF074A082A0506D8A006060B
:102D3C00052806E10628D8A4A6EF16F0A8EF16F091
:102D4C0093EF16F01200296EB4EF16F0010E30EC72
:102D5C0015F0010EDFEC16F0C3EF16F02950000A47
:102D6C00D8B4ACEF16F0010AD8B4C3EF16F0030ACE
:102D7C00D8B4C3EF16F0C3EF16F01200026ECFEF0B
:102D8C0016F0010E57EC15F0010EF8EC16F0DEEF14
:102D9C0016F00250000AD8B4C7EF16F0010AD8B4E6
:102DAC00DEEF16F0030AD8B4DEEF16F0DEEF16F005
:102DBC001200286EE8EF16F09388F7EF16F0938A5E
:102DCC00F7EF16F02850000AD8B4F7EF16F0010A06
:102DDC00D8B4E2EF16F0030AD8B4E5EF16F0F7EF2B
:102DEC0016F01200016E01EF17F0938810EF17F038
:102DFC00938A10EF17F00150000AD8B410EF17F0B7
:102E0C00010AD8B4FBEF16F0030AD8B4FEEF16F0A3
:102E1C0010EF17F01200698468986D82010E0001A2
:102E2C00FD6F000E01012A6F000E0E6E750E0D6EF9
:102E3C00000E0F6E000E106E000E126E000E116E54
:102E4C007EEC12F01200A09A5550D8A430EF17F077
:102E5C0032EF17F03DEF17F028C01BF129C01CF121
:102E6C002AC054F0010E0101296F010E556EA08A83
:102E7C001200000E0101DE6F080EE06F000EDF6F16
:102E8C00800EDA6F250EDB6F000EDC6F000EDD6F2F
:102E9C00000E0001FA6F1200000EA9EC16F084EC83
:102EAC0009F0F2EC15F01BEC08F059EF17F007EFF6
:022EBC0000F024
:020000040020DA
:08000000FFFFFFFFFFFFFFFF00
:020000040030CA
:0E000000210E3F1EFF0181FF0FC00FE00F40D9
:00000001FF
